:060000000C944B000C946F
:1000060000000C9400000C9400000C9400000C946A
:1000160000000C9400000C9400000C9400000C945A
:1000260000000C9400000C9400000C9400000C944A
:1000360000000C9400000C9400000C9400000C943A
:1000460000000C9400000C9400000C9400000C942A
:1000560000000C9400000C9400000C9400000C941A
:1000660000000C9400000C9400000C9400000C940A
:1000760000000C9400000C9400000C9400000C94FA
:1000860000000C9400003F065B4F666D7D077F6F96
:10009600F894EE27ECBBF1E0F5BFE5BFE0936C000A
:1000A6008DE0A2E0BB27ED938A95E9F780E090E129
:1000B600A0E0B1E0ED930197E9F78BBFEFEFEDBF5D
:1000C600E0E1EEBFC0E0D5E00C94690001E010E08D
:1000D600E0EFE7BBE1BBEFE0E0936400E0E0E8BB04
:1000E600E2BBD8010AD00F5F1F4F0D33E0E01E07B9
:1000F60014F001E010E0F5CFFFCFBA93AA9326974C
:1001060077D045D09AD09F0142D046D0E4E6F0E0C1
:1001160094D0AF01AC85BD85E4E6F0E03DD0EAE0E1
:10012600F0E08BD0EA87FB87AC85BD85EAE0F0E09E
:1001360089D0E887F98700E010E00530E0E01E0787
:100146001CF5E8E0E09365002DD032D02BD035D0F9
:1001560039D0BCF0E4E0E09365003AD029D038D03D
:100166002CD0E8E0E093650039D022D037D025D0F6
:1001760029D03CF0E4E0E093650035D019D033D0C7
:100186001CD00F5F1F4FD9CF3AD02E960895AC855D
:10019600BD85E8EEF3E0089555D0EE83FF83AE818A
:1001A600BF810895E885F985E457FF4FE4910895E6
:1001B600EF70E295E07FE2BB0895E07FE8BBAAE03E
:1001C600B0E05CC0EC85FD85EB30A0E0FA07089551
:1001D600EA85FB85E457FF4FE4910895FA01E45759
:1001E600FF4FE4910895F901E457FF4FE491089514
:1001F6005A934A933A932A931A930A9308955D81E0
:100206004C813B812A81198108810895F195E195F8
:10021600F04008950024112490E1AA0FBB1F001C92
:10022600111C0E1A1F0A18F40E0E1F1E01C0A16023
:100236009A9599F7FD01D001089512D0EBDF0EF4DF
:10024600E5DF0895E894B7FF04C0B195A195B040E5
:100256006894F7FDDBDFDEDFFD010EF4D7DF0895DE
:10026600E894F7FF02C0D2DF6894B7FF06C0B195E5
:10027600A195B04000F8039400FA0895109639F05D
:10028600A89580EA9FE00197F1F71197C9F70895BD
:00000001FF
