:020000000C945E
:100002004B000C9400000C9400000C9400000C9423
:1000120000000C9400000C9400000C9400000C945E
:1000220000000C9400000C9400000C9400000C944E
:1000320000000C9400000C9400000C9400000C943E
:1000420088000C9400000C9400000C9400000C94A6
:1000520000000C9400000C9400000C9400000C941E
:1000620000000C9400000C9400000C9400000C940E
:1000720000000C9400000C9400000C9400000C94FE
:1000820000000C9400000C94000000000200040028
:100092008C000000F894EE27ECBBF1E0F5BFE5BF61
:1000A200E0936C008DE0A2E0BB27ED938A95E9F71F
:1000B20080E090E1A0E0B1E0ED930197E9F7EEE88E
:1000C200F0E085919591009761F0A591B591059029
:1000D2001590BF01F00105900D920197E1F7FB0128
:1000E200F0CF8BBFEFEFEDBFE0E1EEBFC0E0D5E0B8
:1000F2000C947B00EFEFE4BB55BAE6E0E3BFE1E02E
:10010200E7BFE6E0E2BFE0E8EFBFFFCFFFCFEA9351
:10011200EFB7EA93E6E0E2BF4394EAEFE41521F495
:10012200EFEF5E2655BA4424E991EFBFE9911895A5
:00000001FF
