:100000000C9446000C9400000C9400000C9400002A
:100010000C9400000C9400000C9400000C94000060
:100020000C9400000C9400000C9400000C94000050
:100030000C9400000C9400000C9400000C94000040
:100040000C9400000C9400000C9400000C94000030
:100050000C9400000C9400000C9400000C94000020
:100060000C9400000C9400000C9400000C94000010
:100070000C9400000C9400000C9400000C94000000
:100080000C9400000C9400000C940000F894EE27EF
:10009000ECBBF1E0F5BFE5BFE0936C008DE0A2E0C2
:1000A000BB27ED938A95E9F780E090E1A0E0B1E00D
:1000B000ED930197E9F78BBFEFEFEDBFE0E1EEBF06
:1000C000C0E0D5E00C946400E0EFE7BBE1BBEFE0FB
:1000D000E0936400E1E0E0936500E0E015D0E2E049
:1000E000E0936500E0E5E8BBE0EB14D0E4E0E093EA
:1000F0006500E0E4E8BBE0EF0DD0E8E0E0936500E8
:10010000E0E602D0E7CFFFCFE8BBE0E6E2BBA5E048
:10011000B0E004C0E2BBA5E0B0E000C0109639F04A
:10012000A89580EA9FE00197F1F71197C9F7089524
:00000001FF
