:040000000C944B0011
:100004000C9400000C9400000C9400000C9400006C
:100014000C9400000C9400000C9400000C9400005C
:100024000C9400000C9400000C9400000C9400004C
:100034000C9400000C9400000C9400000C9400003C
:100044000C9400000C9400000C9400000C9400002C
:100054000C9400000C9400000C9400000C9400001C
:100064000C9400000C9400000C9400000C9400000C
:100074000C9400000C9400000C9400000C940000FC
:100084000C9400000C9400003F065B4F666D7D07E6
:100094007F6FF894EE27ECBBF1E0F5BFE5BFE0938A
:1000A4006C008DE0A2E0BB27ED938A95E9F780E030
:1000B40090E1A0E0B1E0ED930197E9F78BBFEFEF9A
:1000C400EDBFE0E1EEBFC0E0D5E00C946900E0EFE5
:1000D400E7BBE1BBEFE0E0936400E8E0E093650098
:1000E400E0E0E8BBE2BB00E010E00A30E0E01E071D
:1000F40074F40FD0EF70E295E07FE2BB0AD0E07FAA
:10010400E8BBA4EFB1E00AD00F5F1F4FEECFEBCFF7
:10011400FFCFF801E457FF4FE4910895109639F0AA
:10012400A89580EA9FE00197F1F71197C9F7089520
:00000001FF
