:040000000C944B0011
:100004000C9400000C9400000C9400000C9400006C
:100014000C9400000C9400000C9486000C94920044
:100024000C9400000C9400000C9400000C9400004C
:100034000C9400000C9400000C9400000C9400003C
:100044000C9400000C9400000C9400000C9400002C
:100054000C9400000C9400000C9400000C9400001C
:100064000C9400000C9400000C9400000C9400000C
:100074000C9400000C9400000C9400000C940000FC
:100084000C9400000C940000FD00010005008C009D
:100094000000F894EE27ECBBF1E0F5BFE5BFE09378
:1000A4006C008DE0A2E0BB27ED938A95E9F780E030
:1000B40090E1A0E0B1E0ED930197E9F7EEE8F0E01C
:1000C40085919591009761F0A591B5910590159052
:1000D400BF01F00105900D920197E1F7FB01F0CF0C
:1000E4008BBFEFEFEDBFE0E1EEBFC0E0D5E00C94D5
:1000F4007B00EFEFE4BB55BAE0ECE9BFE0EEEABF0A
:10010400E0E8EFBFFFCFFFCFEA93EFB7EA93550CD8
:10011400E1E05E2AEFEFE51511F4EEEF5E2E0BC081
:10012400EA93EFB7EA935694E0E85E2AEFEFE51519
:1001340011F4EFE75E2E55BAE991EFBFE9911895F6
:00000001FF
